:020000040040BA
:10000000686D4020B5F740000D5C4500215C45005F
:10001000355C4500495C45005D5C45000000000022
:100020000000000000000000000000001168440013
:10003000715C4500000000001368440081694400C1
:100040005D1644006D1644007D1644008D16440074
:100050009D164400AD164400BD1644008949460073
:100060008B49460000000000CD164400DD16440018
:10007000ED164400FD1644000D1744001D17440002
:100080002D1744003D1744004D1744005D174400F0
:100090006D1744007D1744008D1744009D174400E0
:1000A000AD174400BD174400CD174400DD174400D0
:1000B000ED174400FD1744000D1844001D184400BE
:1000C0002D1844003D1844004D1844005D184400AC
:1000D0006D1844007D1844008D1844009D1844009C
:1000E000AD184400BD184400CD184400DD1844008C
:1000F0008D4946008F49460091494600ED1844005D
:10010000FD1844000D1944001D1944002D19440028
:100110003D19440000000000000000000000000045
:100120004D1944005D1944006D1944007D194400C7
:100130008D194400B1F740009D194400AD194400E9
:100140000000000000000000B1F74000B1F74000DF
:10015000B1F74000F1EE103A43F08073E1EE103A4F
:10016000704700BF10B5054C237833B9044B13B169
:100170000448AFF300800123237010BDE80940203C
:1001800000000000384A4A000C4B43B10C480D49AE
:1001900010B5AFF300800C48036823B910BD0A48BE
:1001A000036833B97047094B002BF7D0BDE8104006
:1001B0001847064B002BF5D0184700BF0000000081
:1001C000384A4A00EC094020801C4A000000000028
:1001D000704770477047704700B583B003681B6D68
:1001E0008DED000ACDED010A6946984703B05DF830
:1001F00004FB00B583B00268126D91ED007AD0ED7A
:100200001C7A37EE677AD1ED017AD0ED1D6A77EE70
:10021000E67A8DED007ACDED017A6946904703B01C
:100220005DF804FB00B583B003689B6D8DED000A9B
:10023000CDED010A6946984703B05DF804FB08B5A7
:10024000034600F10802BFF35B8F52E8001F013143
:1002500042E8001EBEF1000FF7D1BFF35B8F1B68B1
:100260005B689847012008BD30B585B00546114B45
:100270009847B8B10446104B029300230393D5F876
:10028000C05004AA12E903008DE80300084611F0EB
:10029000010F09D1009B04220B2104EB6000984759
:1002A00000B1056005B030BD4B10E258009BD3583B
:1002B000F1E700BF69BB450045614500F0B52DED94
:1002C000068BB9B00446A84B1A68D2F890240A925B
:1002D000A64A0B921B680AAAC3F89024D0ED168A8E
:1002E000D0ED147A78EEE78A90ED17AAD0ED157A62
:1002F0003AEE67AA90ED1C7AF1EE477AD0ED1D9A9E
:10030000F1EE69AA78EEC78A7AEE699AFDEEE77A8D
:1003100017EE900AFDEEE87A17EE905A281A0C9024
:10032000D4F87C31D4F86C219B1A9B105A1ED4F857
:100330007031D4F874619B1B9B1003EBC213D4F88B
:100340006821D4F86061921B03EBA2030D938342F2
:100350002EDA0DAA1668D1ED007AFDEEE77A17EED7
:10036000902AAA1A0E920F939A4223DD0FAB1D68B2
:10037000864221DB07EE905AF8EEE77A78EEE78ABC
:10038000D4F87C31D4F86C219B1A9B105A1ED4F8F7
:100390007031D4F874115B1A9B1003EBC213D4F8BC
:1003A0006821D4F86011521A03EBA2035D1BF8E038
:1003B0000CAACFE70EABDAE70B6807EE906AF8EE0F
:1003C000E77A78EEE77A1093CDED11AACDED127AA7
:1003D000CDED139A2046664B984706460028C9D0B3
:1003E000644B219300232293D4F8C070D4F8A83032
:1003F000209321AA92E803008DE80300084611F03B
:10040000010F06D15B4B1822152106EB60009847BF
:1004100004E04B10F258009BD358F4E7064600283E
:10042000A8D046F8047B24AF10AB0FCB87E80F00B1
:1004300086E80F00209B239333619BE70691D4F855
:1004400064310793D4F86C210992CB1A15EBA303FE
:100450001FD47F2B1FDC0122FAB9002B24DD1A46A2
:100460001FDBD211099951F82210A3EBC21301EB43
:1004700083030693069B1C93D4ED606A93ED007A88
:1004800037EE667AD4ED617A77EEE67A87EE270A60
:10049000ABE00022E0E70022DEE701EB85010691F8
:1004A000E8E703F17F02DCE7DA436FEAD212D9E72B
:1004B000064660B32F4B299300232A93D4F8C070CB
:1004C000D4F8B030289302AB29AA92E8030083E85D
:1004D0000300039810F0010F06D1264B18221521B6
:1004E00006EB6000984704E04310F258029BD35893
:1004F000F4E7064658B146F8047B2CAF14AB0FCB9B
:1005000087E80F0086E80F00289B2B933361CDED21
:10051000188ACDED19AA8DED1A8A8DED1B9A204609
:10052000134B98470646002838D0124B31930023CE
:100530003293D4F8C070D4F8A830309304AB31AA09
:1005400092E8030083E80300059810F0010F06D13C
:10055000084B1822152106EB6000984710E0431065
:10056000F258049BD358F4E780104020DCB44700D5
:1005700069BB4500456145000000003F0000803F29
:10058000064658B146F8047B34AF18AB0FCB87E86A
:100590000F0086E80F00309B339333610135F0EE96
:1005A000488AD4F87C31D4F86C219B1A9B105A1ECF
:1005B000D4F87031D4F874115B1A9B1003EBC2139A
:1005C000D4F86821D4F86011521A03EBA2039D42BB
:1005D00023DA94ED607AD4ED617AB4EE677AF1EEC5
:1005E00010FA7FF42BAF1FED1C0A1FED1C8A38EEAA
:1005F000400A20EE0A0A114B9847B0EE409A38EEB6
:10060000888ACDED148A8DED150A8DED168ACDED13
:10061000179A20460A4B98474AE70A4B1B680A9AE2
:10062000C3F8902439B0BDEC068BF0BD054B1B68B8
:100630000A9AC3F89024044B984700BF19FF46005C
:1006400069BB4500801040207D6F460070B504688E
:100650008C4229D00D460646174B9C4225D0ACB1A2
:100660000023036004F10803BFF35B8F53E8002FFE
:10067000013A43E800210029F8D1BFF35B8F002A3B
:1006800004DC20460D4B98470028EBD065B135605F
:100690000835BFF35B8F55E8003F013345E8003272
:1006A000002AF8D1BFF35B8F70BD054B054A4FF4AC
:1006B000D5710548054CA047ADDEADDE893046005A
:1006C000B4B54700E4B44700D8B5470061394700E6
:1006D0002DE9F0478CB0044600F184050023039314
:1006E000D0F8840078B18F4B9847D4F884301B69D8
:1006F0007BB368688C4B984708B16B680393D4F858
:1007000084008A4B9847039B2BB393ED1F7A93ED9C
:100710001C6A37EE066AD3ED207AD3ED1D6A77EEB8
:10072000A66A94ED147AD4ED157A37EE067A77EE50
:10073000A67A8DED067ACDED077A04F17C0306AA40
:1007400092E8030083E80300D4F88C30D4F890805A
:1007500036E10020D0E7226D636D0492059304F129
:100760007C0304AA92E8030083E80300ECE7704BE3
:10077000704A4FF4D5717048704CA0474AE190B967
:1007800004F10803BFF35B8F53E8002F013A43E8FD
:1007900000210029F8D1BFF35B8F002A03DC20463B
:1007A000674B9847EBE765B100950835BFF35B8F62
:1007B00055E8003F013345E80032002AF8D1BFF385
:1007C0005B8F009C04F1840500230193D4F884001E
:1007D00088B1544B9847D4F884301B691BB16868C2
:1007E000514B984700E0002008B16B680193D4F8A2
:1007F00084004E4B9847019B1BB393ED1F7AD3EDBA
:100800001C7A37EE277AD3ED207AD3ED1D6A77EE86
:10081000A67A94ED146AD4ED156A37EE067A77EE6F
:10082000A67A8DED0A7ACDED0B7A04F17C030CAA41
:1008300012E9030083E80300D4F88C30D4F8906008
:1008400056E0226D636D0892099304F17C0308AAB7
:1008500092E8030083E80300EEE7354B354A4FF496
:10086000D5713548354CA047CCE090B904F1080368
:10087000BFF35B8F53E8002F013A43E800210029C2
:10088000F8D1BFF35B8F002A03DC20462C4B98473E
:10089000EBE76FB1029707F10809BFF35B8F59E8E7
:1008A000003F013349E80032002AF8D1BFF35B8FE3
:1008B0000298244B9847029CCCB1234B9C422AD0EF
:1008C000ACB10023029304F10803BFF35B8F53E83C
:1008D000002F013A43E800210029F8D1BFF35B8FD4
:1008E000002A04DC2046164B98470028EBD02B1D2D
:1008F0001D469E422AD01F6800230293002FD7D0A6
:100900001C469F42D4D0104B9C42A6D0002CC0D095
:1009100000230293AAE7064B064A4FF4D571064816
:10092000064CA0476D2D460037304600D12D4600BD
:10093000B4B54700E4B44700D8B547006139470073
:1009400089304600D1064000ADDEADDE019CCCB161
:100950004A4B9C424BD0ACB10023019304F10803F5
:10096000BFF35B8F53E8002F013A43E800210029D1
:10097000F8D1BFF35B8F002A04DC2046404B984738
:100980000028EBD0009CCCB13C4B9C4248D0ACB191
:100990000023009304F10803BFF35B8F53E8002F9B
:1009A000013A43E800210029F8D1BFF35B8F002A08
:1009B00004DC2046324B98470028EBD00AF10403B0
:1009C0009A46984533D01D6800230093002D3FF4CC
:1009D000F8AE1C469D423FF4F4AE284B9C423FF4D7
:1009E000C6AE002C3FF4DFAE00230093C8E6254BD3
:1009F000254A4FF4D5712548254CA047002102A86F
:100A0000244B9847002101A8224B984700216846B3
:100A1000204B9847002103A81E4B98471E4B984730
:100A2000184B194A4FF4D5711848194CA047039C2C
:100A3000CCB1124A944219D0ACB10022039204F115
:100A40000803BFF35B8F53E8002F013A43E800210E
:100A50000029F8D1BFF35B8F002A04DC2046084B45
:100A600098470028EBD00CB0BDE8F087054B064A4C
:100A70004FF4D5710548064CA047C7E7ADDEADDEA3
:100A800089304600B4B54700E4B44700D8B5470004
:100A9000613947004D0640007D6F46002DE9F04F5B
:100AA00095B0054601908946D0ED1C7A91ED007A0B
:100AB00077EE877AC0ED1C7AD0ED1D7A91ED017A40
:100AC00077EE877AC0ED1D7A00F18404002303934A
:100AD000D0F8840080B1914B9847D5F884301B69D9
:100AE00093B360688E4B984708B163680393019B8A
:100AF000D3F884008B4B9847039B3BB393ED1F7A4D
:100B0000D3ED1C7A37EE277AD3ED207AD3ED1D6A28
:100B100077EEA67A019A134692ED146AD2ED156A21
:100B200037EE067A77EEA67A8DED0C7ACDED0D7A5A
:100B30007C330CAA92E8030083E80300019AD2F800
:100B40008C30D2F890A037E10020CDE701990A6DF2
:100B50004B6D0A920B930B467C330AAA92E8030072
:100B600083E80300EAE7704B704A4FF4D571704890
:100B7000704CA0474AE190B904F10803BFF35B8FC2
:100B800053E8002F013A43E800210029F8D1BFF3D0
:100B90005B8F002A03DC2046674B9847EBE765B183
:100BA00004950835BFF35B8F55E8003F013345E8F6
:100BB0000032002AF8D1BFF35B8F049C04F1840556
:100BC00000230593D4F8840088B1544B9847D4F897
:100BD00084301B691BB16868514B984700E00020C6
:100BE00008B16B680593D4F884004E4B9847059B79
:100BF0001BB393ED1F7AD3ED1C7A37EE277AD3ED32
:100C0000207AD3ED1D6A77EEA67A94ED146AD4EDBE
:100C1000156A37EE067A77EEA67A8DED107ACDED6D
:100C2000117A04F17C0310AA92E8030083E8030020
:100C3000D4F88C30D4F8906056E0226D636D0E923B
:100C40000F9304F17C030EAA92E8030083E80300EB
:100C5000EEE7354B354A4FF4D5713548354CA04752
:100C6000CCE090B904F10803BFF35B8F53E8002F89
:100C7000013A43E800210029F8D1BFF35B8F002A35
:100C800003DC20462C4B9847EBE76FB1069707F142
:100C9000080BBFF35B8F5BE8003F01334BE800328A
:100CA000002AF8D1BFF35B8F0698244B9847069C27
:100CB000CCB1234B9C422AD0ACB10023069304F163
:100CC0000803BFF35B8F53E8002F013A43E800218C
:100CD0000029F8D1BFF35B8F002A04DC2046164BB5
:100CE00098470028EBD02B1D1D469E422AD01F6836
:100CF00000230693002FD7D01C469F42D4D0104B20
:100D00009C42A6D0002CC0D000230693AAE7064B35
:100D1000064A4FF4D5710648064CA0476D2D460093
:100D200037304600D12D4600B4B54700E4B4470043
:100D3000D8B547006139470089304600D1064000E8
:100D4000ADDEADDE059CCCB1624B9C424BD0ACB16C
:100D50000023059304F10803BFF35B8F53E8002FD2
:100D6000013A43E800210029F8D1BFF35B8F002A44
:100D700004DC2046584B98470028EBD0049CCCB1AB
:100D8000544B9C4248D0ACB10023049304F10803B7
:100D9000BFF35B8F53E8002F013A43E8002100299D
:100DA000F8D1BFF35B8F002A04DC20464A4B9847FA
:100DB0000028EBD008F1040398469A4533D01D680B
:100DC00000230493002D3FF4F8AE1C469D423FF4EF
:100DD000F4AE404B9C423FF4C6AE002C3FF4DFAE75
:100DE00000230493C8E63D4B3D4A4FF4D5713D487E
:100DF0003D4CA047002106A83C4B9847002105A880
:100E00003A4B9847002104A8384B9847002103A883
:100E1000364B9847364B9847304B314A4FF4D57193
:100E20003048314CA047039CCCB12A4A944244D06C
:100E3000ACB10022039204F10803BFF35B8F53E8C7
:100E4000002F013A43E800210029F8D1BFF35B8F5E
:100E5000002A04DC2046204B98470028EBD001985C
:100E6000244B9847044628B3234B08930023099347
:100E7000019BD3F8C05006AB08AA92E8030083E8B0
:100E80000300079810F0010F1FD11B4B0C221821F3
:100E900004EB60009847034660B143F8045BD9F85F
:100EA00000201292D9F80420139214AA12E9030028
:100EB00083E8030015B0BDE8F08F084B084A4FF4F3
:100EC000D5710848084CA0479CE74310E258069BA0
:100ED000D358DBE7ADDEADDE89304600B4B5470060
:100EE000E4B44700D8B54700613947004D064000DB
:100EF0007D6F460069BB45004561450038B50C462D
:100F00001546AC4204D254F8040B024B9847F8E75C
:100F100038BD00BF1D6E460010B5044603683BB1E6
:100F2000426A04324169034B98472068024B984754
:100F3000204610BDFD0E40001D6E460010B5044653
:100F4000074B03F13C020260A433836400F5AC70EC
:100F5000044B98472046044B9847204610BD00BFDD
:100F6000DCB44700190F4000E1294600A0F1480019
:100F7000FFF7E4BF10B50446044B98474FF4C47123
:100F80002046034B9847204610BD00BF3D0F400050
:100F9000216E4600A0F14800FFF7ECBFF8B5074608
:100FA0000E4615460C4601E044F8040BAC4211D243
:100FB0004FF40070084B9847F6E7084B98472246D5
:100FC00031463846064B9847064B9847064B98479C
:100FD000064B9847F8BD00BFC57A4600157146001C
:100FE000FD0E4000DD794600917146007D6F4600A0
:100FF0002DE9F04383B004460F46CB095D1C08225F
:10100000009203330193934217D901AB18686060D3
:10101000B0F1804F13D280001D4B9847804620606E
:101020006668761B760800EB860909EB85052A467B
:1010300049462046174B984703E06B46E6E7164BB8
:101040009847C4F8149058F82620E26002F500731F
:1010500023612B1F636255F8043CE36103F50071C3
:101060002162A26007F07F0703EB8703A36103B04F
:10107000BDE8F083094B98472068094B9847002347
:1010800023606360074B9847074B9847074B984787
:10109000C57A46009D0F40007D88460015714600C8
:1010A0001D6E4600DD794600917146007D6F460059
:1010B0002DE9F04182B005460F4698461668002398
:1010C000019356B31C469E4227D0474B9C422BD0DF
:1010D000ACB10023019304F10803BFF35B8F53E825
:1010E000002F013A43E800210029F8D1BFF35B8FBC
:1010F000002A04DC20463D4B98470028EBD066B11F
:1011000001960836BFF35B8F56E8003F013346E88F
:101110000032002AF8D1BFF35B8F434601AA39465B
:101120002846334CA04706E0324B334A4FF4D57182
:101130003248334CA047019CCCB12B4B9C4236D05B
:10114000ACB10023019304F10803BFF35B8F53E8B4
:10115000002F013A43E800210029F8D1BFF35B8F4B
:10116000002A04DC2046214B98470028EBD0254B71
:1011700003F13C022A60A433AB640021C5F8581186
:10118000C5F85C11C5F86011C5F86411C5F868119F
:10119000C5F86C11C5F87011C5F87411C5F878114F
:1011A000C5F87C1105F5AC70174B984711E0114B51
:1011B000114A4FF4D5711148114CA047002101A8E4
:1011C000124B9847124B98472846124B9847104BA2
:1011D0009847114BC5F880316FF40003C5F884318E
:1011E000284602B0BDE8F081ADDEADDE89304600B4
:1011F000B5174600B4B54700E4B44700D8B547007A
:1012000061394700DCB44700F10F40004D06400053
:101210007D6F4600E1294600FFFF7F7F2DE9F04307
:1012200083B0044601911546426A4669971BBF1078
:10123000013707EB01084368B3EB480F21D9006879
:10124000A3EB08035B089B006DB189000B44C51834
:10125000AE420AD90432921B930835D03146284653
:10126000284B984730E00021F0E7043205EB870077
:10127000931B9A0828D01A463146C01A214B98472A
:1012800022E0021D994200D901AA166833449E1C2F
:10129000B6F1804F2DD2B0001B4B98478146A6EB8C
:1012A00008035B089B0035B3019DAD001D444D4410
:1012B0006169626A0432521A93081ED12068134B86
:1012C0009847C4F80090666065612B68E36003F599
:1012D000007323616FF040433B4405EB830262627D
:1012E00055F82330E36103F50073236203B0BDE8D2
:1012F000F083074B98470025D8E72846014B9847CD
:10130000DCE700BFF5474700C57A46001D6E460082
:101310007D88460070B504460D464368426A016800
:10132000521AA3EBA203012B13D9666A4FF4007083
:101330000A4B98477060A3692A6803B11A60636A10
:101340001A1D62625B68E36103F500722262A361A9
:1013500070BD00220121024B9847E6E7C57A46009E
:101360001D12400084B0F0B585B006460BA880E899
:101370000E00139C129B0E9A9B1A9B105A1E1099DA
:101380000F9B5B1A9B1003EBC2130B990D9A521A19
:1013900003EBA203039330E001AB51E00246381A9D
:1013A0004D4B984756E000205EE000205CE001EBEA
:1013B00082010F916BE003F17F015BE0D9436FEA9B
:1013C000D11158E000206BE0002069E001EB8202BF
:1013D00022600FE0D211E16801EB8200E06051F879
:1013E0002210616001F50070A060A3EBC21301EB55
:1013F00083032360039B5D1B0395039D002D5CDD30
:101400000F9A1099511A8910019120686368C31AC4
:101410009B100293074631B980220192129A52F82A
:10142000042C02F5007233B980230293E36853F869
:10143000047C07F50077019B02999942ACDA02AB74
:1014400019688D4200DC03AB1D68A2EB8501501AC0
:101450008308A3D16A420F99109BCB1A12EBA30306
:10146000A1D47F2BA1DC01200028A0D1002BA5DD79
:101470001946A0DBC911129800EB8107129750F8AA
:1014800021001090A3EBC11300EB83030F9321689D
:101490006368CB1A12EBA30394D47F2B94DC012056
:1014A000002893D1002B04DD1A4693DA03F17F0262
:1014B00090E7DA436FEAD2128DE7236833606368FE
:1014C0007360A368B360E368F360304605B0BDE8BD
:1014D000F04004B0704700BFF547470010B5044620
:1014E000C068064B984763691A1D62615B68E360D8
:1014F00003F500722261A36010BD00BF1D6E46009F
:1015000084B070B584B0064609A880E80E00119C2E
:10151000109B0C9A9B1A9B105A1E0E990D9B5B1ADE
:101520009B1003EBC21309990B9A521A03EBA20307
:1015300001932EE002AB3CE0434B984741E0002191
:1015400048E0002146E002EB8502099258E003F1F1
:101550007F0245E0DA436FEAD21242E0002158E010
:10156000002156E002EB850222600FE0D211E16813
:1015700001EB8200E06051F82210616001F500701B
:10158000A060A3EBC21301EB83032360019B5D1BEF
:1015900001950198002849DD09990B9A521A921079
:1015A0000292A36825685B1B9B1003939A42C1DDDE
:1015B00003AB1A68904200DC01AB1D682068AA00EA
:1015C000BAD1099A0A9BD31A15EBA303B7D47F2B80
:1015D000B7DC01210029B6D1002BBBDD1A46B6DBF2
:1015E000D2110C9901EB82000C9051F822100A9153
:1015F00001F500700B90A3EBC21301EB8303099379
:1016000022686368D31A15EBA303A7D47F2BA7DC4A
:1016100001210029A6D1002B04DD1A46A6DA03F128
:101620007F02A3E7DA436FEAD212A0E723683360B0
:1016300063687360A368B360E368F360304604B026
:10164000BDE8704004B07047F547470010B5044648
:10165000C069074B9847636A1A1F626253F8043CDB
:10166000E36103F50072226203F5FE73A36110BD0E
:101670001D6E46002DE9F04FCDB006460C46D2F85F
:1016800000E055680D9591680E91D3680F930EF1A7
:1016900004000C90884200F0A580D4F80880E1682E
:1016A0000791D4F810B06769DB1B9B10013BAEEBD0
:1016B0000505AD1005EBC315ABEB08008010054424
:1016C000D4F82490A9EB070189100139D4F818C087
:1016D000D4F81CA0ACEB0A039B1003EBC113184415
:1016E000B5EB500F80F08B80F0453ED0CDF85080A8
:1016F00007991591CDF858B01797D2F800C0CDF8DA
:1017000060C0D2F804E0CDF864E090681A90D2F896
:101710000C90CDF86C900C9B34931C930D9A1D92F9
:101720000E9B1E93DDF83CA0CDF87CA0CDF8F08098
:101730003D91CDF8F8B03F97CDF8E0C0CDF8E4E0AA
:101740003A90CDF8EC9035923693CDF8DCA034ABDE
:1017500005930DF1040E38AB0FCB8EE80F00009708
:101760003CAB0ECB10A8534FB847A3682269043A8C
:10177000934240D00433A360A2683092E36831936F
:101780002069329061693391089209930A900B9114
:10179000D31A15EBA3037DD47F2B7DDC0121002917
:1017A0007CD1002B40F381801A467BDBD2110B9950
:1017B00001EB82000B9051F82210099101F50070A5
:1017C0000A90A3EBC21301EB83030893089B3360D9
:1017D000099B73600A9BB3600B9BF36030464DB06E
:1017E000BDE8F08F191D0F9159680D9101F500703A
:1017F0000E900C9151E720462F4B9847BCE7216A89
:101800000C9B9C453BD02493DDF834B0CDF894B0CC
:10181000DDF83880CDF898800F9F2797CDF8A0C0CD
:10182000CDF8A4A02A91CDF8AC90D2F800E0CDF884
:10183000B0E0506841902D90906842902E90D26810
:101840002F924893CDF824B1CDF828814B97CDF84D
:1018500010C1CDF814A14691CDF81C91CDF800E14E
:10186000439240AB05930DF1040E44AB0FCB8EE8D1
:101870000F00009748AB0ECB20A8104FB847A369C4
:10188000E269934202D0043BA36175E720460C4B0A
:10189000984771E7002182E7002180E702EB850588
:1018A000089593E703F17F0280E7DA436FEAD212EB
:1018B0007DE700BF65134000DD14400001154000C6
:1018C0004D16400030B599B004468DED010A8D4BA0
:1018D0001A68D2F8902406928B4A07921B6806AACF
:1018E000C3F8902400F5AC75AA692B6A043B9A42B0
:1018F0004BD00AB182ED000AAB690433AB61D4F876
:101900007C31D4F86C115B1A9B105A1ED4F87031DC
:10191000D4F874011B1A9B1003EBC213D4F868218E
:10192000D4F86001121A03EBA203B3F57A7F31D821
:10193000D4ED167A94ED147A77EEC77AFDEEE77A55
:1019400017EE900ACDED0C7AD4F87C31D4F86C11F6
:10195000591A89104A1ED4F87031D4F87411591AE2
:10196000891001EBC211D4F86831D4F860219B1AB8
:1019700001EBA3010D9188421ADD0DAB1B68C91A5A
:101980009FED627ADFED626A38E001A92846614B7B
:101990009847B4E710900B6811930B6803F5007338
:1019A0001293139110AA294608A85B4B9847BFE7EA
:1019B0000CABE3E7002247E0002245E000EB8100AA
:1019C000029008E0D211059850F82200A3EBC21350
:1019D00000EB83030293029B1493D3ED007AF4EEA1
:1019E000E76AF1EE10FA01DDF0EE676AB4EEE77A2D
:1019F000F1EE10FA01D5B0EE677A0131D4F87C31FE
:101A0000D4F86C219B1A9B105A1ED4F87031D4F86C
:101A100074011B1A9B1003EBC213D4F86821D4F88D
:101A20006001121A03EBA20399421ADA0290D4F869
:101A300064310393D4F86C210592C31A11EBA3030C
:101A4000B8D47F2BB8DC0122002AB7D1002B04DDEB
:101A50001A46B7DA03F17F02B4E7DA436FEAD2122B
:101A6000B1E7D4ED607AF4EE676AF1EE10FA35D0A2
:101A7000C4ED606A0123D4ED617AB4EE677AF1EEC9
:101A800010FA02D084ED617A01234BBB94ED167AF3
:101A9000D4ED147A37EE677AD4ED177AD4ED156A5F
:101AA00077EEE67AD4ED1C5AD4ED1D6AB1EE666A83
:101AB00037EE657A77EEE67A8DED036A8DED047A7E
:101AC000CDED057A4FF07E53029300230E930F93D2
:101AD0000EAA02A92046114B984705E00023CAE749
:101AE000002120460E4B9847064B1B68069AC3F808
:101AF000902419B030BD034B1B68069AC3F890249C
:101B0000084B98478010402088B54700FFFF7FFFB3
:101B1000FFFF7F7F151340007516400091BE450002
:101B200051BD45007D6F4600012380F85C311846A9
:101B3000704790F85C3113B1002280F85C211846A0
:101B4000704708B5026A12F0010F07D1C1698068B9
:101B500070B1483800EB6200884708BD83682BB13C
:101B6000483B51105958C369C958F0E70023F8E7BA
:101B70000020EFE710B50446024B0360024B984784
:101B8000204610BD90B64700C933460010B5044644
:101B9000044B0360044B984724212046034B98478D
:101BA000204610BD90B64700C9334600216E46005E
:101BB00070B582B004460E462420144B9847054663
:101BC000A2686AB1483A1C3494E8030002AB03E906
:101BD00003003AB14832314628460D4B984709E098
:101BE0000022F0E70022F6E724212846094B984717
:101BF000094B98472B46094A43F81C2B02AA12E9C5
:101C0000030083E80300284602B070BDC57A460091
:101C100091334600216E46007D6F4600A8B647000E
:101C200010B50446084B03F1080202607033836468
:101C30000648074B984704F5AC70064B984720467A
:101C4000054B9847204610BDB8B64700C8B84700B6
:101C5000B94A4700B1324600E1294600A0F14800E8
:101C6000FFF7DEBF10B50446044B98474FF4B07140
:101C70002046034B9847204610BD00BF211C400062
:101C8000216E4600A0F14800FFF7ECBF70B590B0A0
:101C9000044690ED167AD0ED147A37EE677AD0EDDF
:101CA000177AD0ED156A77EEE67A90ED1C6AB1EE00
:101CB000465AD0ED1D6AF1EE665A37EE467A77EE57
:101CC000E67A8DED035ACDED045A8DED057ACDED12
:101CD000067A4FF0FF330793174B984728B3054612
:101CE000164B099300230A93D4F8C060079B08930E
:101CF00001AB09AA92E8030083E80300029810F000
:101D0000010F14D10D4B1822152105EB60009847E7
:101D1000044650B144F8046B0CAD03AB0FCB85E81F
:101D20000F0084E80F00089B236110B070BD4310C2
:101D3000EA58019BD358E6E769BB45004561450079
:101D400070B596B004464FF0FF330993C0F8B03039
:101D50003B4B9847E8B105463A4B0E9300230F934F
:101D6000D4F8C060099B0D9301AB0EAA92E8030062
:101D700083E80300029810F0010F57D1314B08227D
:101D80000E2105EB6000984718B106600D9A10927D
:101D9000426094ED167AD4ED147A37EE677AD4ED7A
:101DA000177AD4ED156A77EEE67A94ED1C6AB1EEF7
:101DB000465AD4ED1D6AF1EE665A37EE467A77EE52
:101DC000E67A8DED055ACDED065A8DED077ACDED0B
:101DD000087A20461A4B9847054628B3194B0B93AF
:101DE00000230C93D4F8C060D4F8B0300A9303AB4E
:101DF0000BAA92E8030083E80300049810F0010F97
:101E000019D1104B1822152105EB600098470446A4
:101E100050B144F8046B12AD05AB0FCB85E80F0051
:101E200084E80F000A9B236116B070BD4310EA5886
:101E3000019BD358A3E74310EA58039BD358E1E72B
:101E400069BB45004561450070B596B004464FF04A
:101E5000FF330993C0F8B0303B4B9847E8B10546D3
:101E60003A4B0E9300230F93D4F8C060099B0D9357
:101E700001AB0EAA92E8030083E80300029810F079
:101E8000010F57D1314B08220E2105EB6000984716
:101E900018B106600D9A1092426094ED167AD4ED56
:101EA000147A37EE677AD4ED177AD4ED156A77EEA7
:101EB000E67A94ED1C6AB1EE465AD4ED1D6AF1EE55
:101EC000665A37EE467A77EEE67A8DED055ACDED15
:101ED000065A8DED077ACDED087A20461A4B9847C1
:101EE000054628B3194B0B9300230C93D4F8C0601C
:101EF000D4F8B0300A9303AB0BAA92E8030083E84E
:101F00000300049810F0010F19D1104B182215216D
:101F100005EB60009847044650B144F8046B12ADDD
:101F200005AB0FCB85E80F0084E80F000A9B236107
:101F300016B070BD4310EA58019BD358A3E7431075
:101F4000EA58039BD358E1E769BB4500456145006A
:101F5000F0B59BB090F85C5115B928461BB0F0BDA8
:101F6000164604464FF0FF230993C0F8B0305D4B8E
:101F700098478646E0B15C4B129300231393D4F844
:101F8000C070099B119312AA92E803008DE8030028
:101F9000084611F0010F40F08E80534B08220E21AD
:101FA0000EEB6000984718B10760119A14924260D6
:101FB00020464C4B9847864628B34B4B0F93002343
:101FC0001093D4F8C07002AB0FAA92E8030083E824
:101FD0000300039810F0010F73D1434B1022162118
:101FE0000EEB60009847024668B1034643F8047B55
:101FF000316815917168169115A903C983E803002A
:102000004FF08143D3606FF47F030893C4F8B0307E
:102010002046344B98478646E0B1334B0D9300235E
:102020000E93D4F8C070089B0C9304AB0DAA92E8F1
:10203000030083E80300059810F0010F47D12A4BF5
:1020400008220E210EEB6000984718B107600C9A29
:10205000179242602046234B9847074600283FF4DA
:102060007CAF214B0A9300230B93D4F8C04006ABFE
:102070000AAA92E8030083E80300079810F0010F12
:102080002BD1194B1022162107EB6000984702460E
:1020900000283FF462AF034643F8044B31681891BF
:1020A000716819911AA911E9030083E803004FF040
:1020B0008043D36051E74B105EF80320009BD35858
:1020C0006CE743105EF80320029BD35886E7431069
:1020D0005EF80320049BD358B2E74310FA58069BDE
:1020E000D358CFE769BB45004561450070B504682A
:1020F0008C4229D00D460646174B9C4225D0ACB1E8
:102100000023036004F10803BFF35B8F53E8002F43
:10211000013A43E800210029F8D1BFF35B8F002A80
:1021200004DC20460D4B98470028EBD065B13560A4
:102130000835BFF35B8F55E8003F013345E80032B7
:10214000002AF8D1BFF35B8F70BD054B054A4FF4F1
:10215000D5710548054CA047ADDEADDE893046009F
:10216000B4B547005CB74700D8B5470061394700B0
:1021700070B506461420304B984705462F4B9847BC
:1021800000233360002D4ED01C469D4236D02C4B90
:102190009C4203D01CB3002333600DE0294B2A4A34
:1021A0004FF4D57129482A4CA04700213046294BCD
:1021B0009847294B984790B904F10803BFF35B8F08
:1021C00053E8002F013A43E800210029F8D1BFF37A
:1021D0005B8F002A03DC2046204B9847EBE76DB16C
:1021E000356005F10803BFF35B8F53E8002F013220
:1021F00043E800210029F8D1BFF35B8F1849284636
:10220000184B98470835BFF35B8F55E8003F03F143
:10221000444303F5CA0303F5585345E80032002A46
:10222000F3D1BFF35B8F304670BD142128460E4BAF
:102230009847094B984700BFC57A4600A1804500E2
:10224000ADDEADDEB4B547005CB74700D8B547009A
:1022500061394700ED2040007D6F4600893046001F
:1022600000CA9A3B8D314600216E460070B5046865
:102270008C4229D00D460646174B9C4225D0ACB166
:102280000023036004F10803BFF35B8F53E8002FC2
:10229000013A43E800210029F8D1BFF35B8F002AFF
:1022A00004DC20460D4B98470028EBD065B1356023
:1022B0000835BFF35B8F55E8003F013345E8003236
:1022C000002AF8D1BFF35B8F70BD054B054A4FF470
:1022D000D5710548054CA047ADDEADDE893046001E
:1022E000B4B547008CB74700D8B5470061394700FF
:1022F00070B504688C4229D00D460646174B9C42A7
:1023000025D0ACB10023036004F10803BFF35B8F59
:1023100053E8002F013A43E800210029F8D1BFF328
:102320005B8F002A04DC20460D4B98470028EBD039
:1023300065B135600835BFF35B8F55E8003F013369
:1023400045E80032002AF8D1BFF35B8F70BD054B22
:10235000054A4FF4D5710548054CA047ADDEADDE0A
:1023600089304600B4B54700BCB74700D8B5470030
:1023700061394700F0B587B0054600F5AC7600231B
:102380000493002839D01C46984236D09C4B9C427E
:1023900003D01CB3002304930DE09A4B9A4A4FF4E8
:1023A000D5719A489A4CA047002104A8994B9847A8
:1023B000994B984790B904F10803BFF35B8F53E83A
:1023C000002F013A43E800210029F8D1BFF35B8FC9
:1023D000002A03DC2046914B9847EBE76DB104954A
:1023E00005F10803BFF35B8F53E8002F013243E888
:1023F00000210029F8D1BFF35B8F049F00230393D2
:102400009FB31C469F4230D07D4B9C4203D0F4B119
:102410000023039308E07B4B814A4FF4D5717B483E
:102420007B4CA04737E190B904F10803BFF35B8F01
:1024300053E8002F013A43E800210029F8D1BFF307
:102440005B8F002A03DC2046744B9847EBE767B1AB
:1024500003970837BFF35B8F57E8003F013347E826
:102460000032002AF8D1BFF35B8FD5F85831002B2A
:1024700000F08480009301966A4B18686A4B984775
:1024800002906946674B1868684B98474EE05D4B71
:10249000634A4FF4D5715D485D4CA047E5E090B9C3
:1024A00004F10803BFF35B8F53E8002F013A43E8C0
:1024B00000210029F8D1BFF35B8F002A03DC2046FE
:1024C000564B9847EBE765B105950835BFF35B8F31
:1024D00055E8003F013345E80032002AF8D1BFF348
:1024E0005B8F05A93046B847059CCCB1444B9C4254
:1024F00031D0ACB10023059304F10803BFF35B8F27
:1025000053E8002F013A43E800210029F8D1BFF336
:102510005B8F002A04DC2046404B98470028EBD014
:10252000019BFBB1009B002B00F08880009E33696B
:1025300000933368DF68039D00230593002DD0D0FE
:102540001C469D42CDD02E4B9C42A0D0002CBAD030
:1025500000230593A4E72B4B314A4FF4D5712B4848
:102560002B4CA0472F4B18682F4B98476B46834244
:102570003FD102992B4B18682C4B9847039CD4B140
:102580001F4B9C4200F08D80ACB10023039304F1FB
:102590000803BFF35B8F53E8002F013A43E80021A3
:1025A0000029F8D1BFF35B8F002A04DC20461B4BC7
:1025B00098470028EBD0049CCCB1114B9C4277D0BB
:1025C000ACB10023049304F10803BFF35B8F53E81D
:1025D000002F013A43E800210029F8D1BFF35B8FB7
:1025E000002A04DC20460D4B98470028EBD007B0AA
:1025F000F0BD0F4B0F4A31210F48054CA04700BFDB
:10260000ADDEADDEB4B54700BCB74700D8B5470076
:1026100061394700F12240007D6F46008930460055
:1026200030B747000464402045604400196044000E
:10263000E0B84700E8B7470000B94700204B1868EA
:10264000204B98476B46834205D102991C4B186872
:102650001D4B984792E71D4B1D4A31211D481E4CCA
:10266000A047002105A81D4B9847154B1868154B2E
:1026700098476B46834205D0144B154A31211548C3
:10268000154CA04702990E4B18680F4B9847002134
:1026900003A8124B9847002104A8114B9847114BEF
:1026A0009847114B114A4FF4D57111480A4CA04775
:1026B0000D4B104A4FF4D5710D48074CA047E6E783
:1026C000046440204560440019604400E0B84700BD
:1026D000E8B7470000B94700613947004D064000A0
:1026E000F12240007D6F4600B4B5470030B7470087
:1026F000D8B54700BCB7470070B504688C4229D0F4
:102700000D460646174B9C4225D0ACB10023036012
:1027100004F10803BFF35B8F53E8002F013A43E84D
:1027200000210029F8D1BFF35B8F002A04DC20468A
:102730000D4B98470028EBD065B135600835BFF3E5
:102740005B8F55E8003F013345E80032002AF8D19D
:10275000BFF35B8F70BD054B054A4FF4D57105483B
:10276000054CA047ADDEADDE89304600B4B547006C
:102770000CB84700D8B547006139470070B5064628
:102780001420304B984705462F4B98470023336061
:10279000002D4ED01C469D4236D02C4B9C4203D07F
:1027A0001CB3002333600DE0294B2A4A4FF4D57146
:1027B00029482A4CA04700213046294B9847294BED
:1027C000984790B904F10803BFF35B8F53E8002FDB
:1027D000013A43E800210029F8D1BFF35B8F002ABA
:1027E00003DC2046204B9847EBE76DB1356005F1DF
:1027F0000803BFF35B8F53E8002F013243E8002149
:102800000029F8D1BFF35B8F18492846184B984729
:102810000835BFF35B8F55E8003F03F1444303F5F0
:10282000CA0303F5585345E80032002AF3D1BFF339
:102830005B8F304670BD142128460E4B9847094BDC
:10284000984700BFC57A460089804500ADDEADDE01
:10285000B4B547000CB84700D8B547006139470008
:10286000F92640007D6F46008930460000CA9A3B39
:102870008D314600216E460070B504688C4229D027
:102880000D460646174B9C4225D0ACB10023036091
:1028900004F10803BFF35B8F53E8002F013A43E8CC
:1028A00000210029F8D1BFF35B8F002A04DC204609
:1028B0000D4B98470028EBD065B135600835BFF364
:1028C0005B8F55E8003F013345E80032002AF8D11C
:1028D000BFF35B8F70BD054B054A4FF4D5710548BA
:1028E000054CA047ADDEADDE89304600B4B54700EB
:1028F0003CB84700D8B547006139470070B582B091
:1029000005460E4681B10023A3B9941B01940F2CF8
:1029100013D82868012C19D0DCB9019B6B602A6898
:102920000021D15402B070BD914201D00123EBE7E8
:102930000023E9E709480A4B9847002201A92846E5
:10294000084B98472860019BAB60E2E7337803703F
:10295000E3E722463146044B9847DEE79CB8470040
:102960009D884600898E4600C1464700F0B58BB071
:10297000054617461E4605AB03930C46B9B10846FB
:102980006F4B984722184FF00003214603A86D4C67
:10299000A047366800230993AEB31C469E4232D04E
:1029A000694B9C4205D004B3002309930AE04A1EF8
:1029B000E9E7664B664A4FF4D5716648664CA04716
:1029C0004BE090B904F10803BFF35B8F53E8002F8D
:1029D000013A43E800210029F8D1BFF35B8F002AB8
:1029E00003DC20465D4B9847EBE766B10996083655
:1029F000BFF35B8F56E8003F013346E80032002A00
:102A0000F8D1BFF35B8F4FF4C070554B9847064623
:102A10000023009309AB3A4603A9524CA047002378
:102A20002B60002E59D01C469E4241D0464B9C4202
:102A300004D0002C2DD000232B6017E0434B4A4AD2
:102A40004FF4D5714348444CA04700212846474BDA
:102A50009847002109A8464B9847039805AB984230
:102A600001D0444B9847444B984790B904F1080370
:102A7000BFF35B8F53E8002F013A43E800210029A0
:102A8000F8D1BFF35B8F002A03DC2046334B984715
:102A9000EBE76EB12E6006F10803BFF35B8F53E8DE
:102AA000002F013243E800210029F8D1BFF35B8FEA
:102AB00032493046324B98470836BFF35B8F56E8B1
:102AC000003F03F1444303F5CA0303F5585346E8B6
:102AD0000032002AF3D1BFF35B8F099CCCB11A4BB3
:102AE0009C421FD0ACB10023099304F10803BFF34B
:102AF0005B8F53E8002F013A43E800210029F8D109
:102B0000BFF35B8F002A04DC2046144B9847002853
:102B1000EBD0039805AB984201D0164B9847284656
:102B20000BB0F0BD094B0A4A4FF4D57109480A4C65
:102B3000A0474FF4C0713046124B984789E788E7A9
:102B400041584700FD284000ADDEADDEB4B547007A
:102B500030B74700D8B54700613947008930460093
:102B6000C57A4600F57B45003CB84700792840000F
:102B70004D0640001D6E46007D6F460000CA9A3B20
:102B80008D314600216E4600F0B589B005461646E7
:102B90001F4603AB01930C46B9B108466E4B9847EC
:102BA00022184FF00003214601A86C4CA04736685C
:102BB00000230793AEB31C469E4232D0684B9C4222
:102BC00005D004B3002307930AE04A1EE9E7654BEA
:102BD000654A4FF4D5716548654CA04749E090B906
:102BE00004F10803BFF35B8F53E8002F013A43E879
:102BF00000210029F8D1BFF35B8F002A03DC2046B7
:102C00005C4B9847EBE766B107960836BFF35B8FDE
:102C100056E8003F013346E80032002AF8D1BFF3FE
:102C20005B8F4FF4AC70544B984706463B6807AA3D
:102C300001A9524CA04700232B60002E59D01C46FE
:102C40009E4241D0464B9C4204D0002C2DD0002304
:102C50002B6017E0434B444A4FF4D5714348444C32
:102C6000A04700212846464B9847002107A8444B1F
:102C70009847019803AB984201D0424B9847424B8A
:102C8000984790B904F10803BFF35B8F53E8002F16
:102C9000013A43E800210029F8D1BFF35B8F002AF5
:102CA00003DC2046334B9847EBE76EB12E6006F10C
:102CB0000803BFF35B8F53E8002F013243E8002184
:102CC0000029F8D1BFF35B8F30493046304B98472D
:102CD0000836BFF35B8F56E8003F03F1444303F52A
:102CE000CA0303F5585346E80032002AF3D1BFF374
:102CF0005B8F079CCCB11A4B9C421FD0ACB1002318
:102D0000079304F10803BFF35B8F53E8002F013AE8
:102D100043E800210029F8D1BFF35B8F002A04DCCF
:102D20002046144B98470028EBD0019803AB9842FB
:102D300001D0144B9847284609B0F0BD094B0A4A08
:102D40004FF4D57109480A4CA0474FF4AC71304696
:102D5000104B984789E788E741584700FD28400015
:102D6000ADDEADDEB4B5470030B74700D8B547009B
:102D70006139470089304600C57A4600B5174600DC
:102D80004D0640001D6E46007D6F460000CA9A3B0E
:102D90008D314600216E4600F0B589B005461646D5
:102DA0001F4603AB01930C46B9B108466E4B9847DA
:102DB00022184FF00003214601A86C4CA04736684A
:102DC00000230793AEB31C469E4232D0684B9C4210
:102DD00005D004B3002307930AE04A1EE9E7654BD8
:102DE000654A4FF4D5716548654CA04749E090B9F4
:102DF00004F10803BFF35B8F53E8002F013A43E867
:102E000000210029F8D1BFF35B8F002A03DC2046A4
:102E10005C4B9847EBE766B107960836BFF35B8FCC
:102E200056E8003F013346E80032002AF8D1BFF3EC
:102E30005B8F4FF4AC70544B984706463B6807AA2B
:102E400001A9524CA04700232B60002E59D01C46EC
:102E50009E4241D0464B9C4204D0002C2DD00023F2
:102E60002B6017E0434B444A4FF4D5714348444C20
:102E7000A04700212846464B9847002107A8444B0D
:102E80009847019803AB984201D0424B9847424B78
:102E9000984790B904F10803BFF35B8F53E8002F04
:102EA000013A43E800210029F8D1BFF35B8F002AE3
:102EB00003DC2046334B9847EBE76EB12E6006F1FA
:102EC0000803BFF35B8F53E8002F013243E8002172
:102ED0000029F8D1BFF35B8F30493046304B98471B
:102EE0000836BFF35B8F56E8003F03F1444303F518
:102EF000CA0303F5585346E80032002AF3D1BFF362
:102F00005B8F079CCCB11A4B9C421FD0ACB1002305
:102F1000079304F10803BFF35B8F53E8002F013AD6
:102F200043E800210029F8D1BFF35B8F002A04DCBD
:102F30002046144B98470028EBD0019803AB9842E9
:102F400001D0144B9847284609B0F0BD094B0A4AF6
:102F50004FF4D57109480A4CA0474FF4AC71304684
:102F6000104B984789E788E741584700FD28400003
:102F7000ADDEADDEB4B5470030B74700D8B5470089
:102F80006139470089304600C57A4600B5174600CA
:102F90004D0640001D6E46007D6F460000CA9A3BFC
:102FA0008D314600216E4600F0B591B005461446BD
:102FB0001F4605AB03930E46B9B108467E4B9847B2
:102FC00032184FF00003314603A87C4EB0470BABDC
:102FD000099364B12046784B984722184FF00003BC
:102FE000214609A8754CA04703E04A1EE9E7621E86
:102FF000F4E73E6800230F939EB31C469E4230D0F8
:103000006F4B9C4203D0F4B100230F9308E06D4B4B
:103010006D4A4FF4D5716D486D4CA0474BE090B9A7
:1030200004F10803BFF35B8F53E8002F013A43E834
:1030300000210029F8D1BFF35B8F002A03DC204672
:10304000644B9847EBE766B10F960836BFF35B8F8A
:1030500056E8003F013346E80032002AF8D1BFF3BA
:103060005B8F4FF4C0705C4B98470646002300937B
:103070000FAB09AA03A9594CA04700232B60002ECF
:103080005FD01C469E4247D04D4B9C4204D0002C42
:1030900033D000232B601DE04A4B514A4FF4D571C9
:1030A0004A484B4CA047002128464E4B98470021E8
:1030B0000FA84D4B984709980BAB984201D04B4B4A
:1030C0009847039805AB984201D0484B9847484B26
:1030D000984790B904F10803BFF35B8F53E8002FC2
:1030E000013A43E800210029F8D1BFF35B8F002AA1
:1030F00003DC2046374B9847EBE76EB12E6006F1B4
:103100000803BFF35B8F53E8002F013243E800212F
:103110000029F8D1BFF35B8F36493046364B9847CC
:103120000836BFF35B8F56E8003F03F1444303F5D5
:10313000CA0303F5585346E80032002AF3D1BFF31F
:103140005B8F0F9CCCB11E4B9C4225D0ACB10023B1
:103150000F9304F10803BFF35B8F53E8002F013A8C
:1031600043E800210029F8D1BFF35B8F002A04DC7B
:103170002046184B98470028EBD009980BAB984293
:1031800001D01A4B9847039805AB984201D0174BD2
:103190009847284611B0F0BD0A4B0B4A4FF4D57141
:1031A0000A480B4CA0474FF4C0713046134B984768
:1031B0007DE77CE785E700BF41584700FD284000D8
:1031C000ADDEADDEB4B5470030B74700D8B5470037
:1031D0006139470089304600C57A4600F57B4500D5
:1031E0003CB84700792840004D0640001D6E46005F
:1031F0007D6F460000CA9A3B8D314600216E460025
:10320000F0B591B0054614461F4605AB03930E4634
:10321000B9B108467E4B984732184FF0000331464B
:1032200003A87C4EB0470BAB099364B12046784BA2
:10323000984722184FF00003214609A8754CA04773
:1032400003E04A1EE9E7621EF4E73E6800230F939D
:103250009EB31C469E4230D06F4B9C4203D0F4B1CB
:1032600000230F9308E06D4B6D4A4FF4D5716D4804
:103270006D4CA0474BE090B904F10803BFF35B8F9E
:1032800053E8002F013A43E800210029F8D1BFF3A9
:103290005B8F002A03DC2046644B9847EBE766B15E
:1032A0000F960836BFF35B8F56E8003F013346E8C0
:1032B0000032002AF8D1BFF35B8F4FF4C0705C4B33
:1032C00098470646002300930FAB09AA03A9594C5F
:1032D000A04700232B60002E5FD01C469E4247D0A3
:1032E0004D4B9C4204D0002C33D000232B601DE0BA
:1032F0004A4B514A4FF4D5714A484B4CA0470021E4
:1033000028464E4B984700210FA84D4B98470998E7
:103310000BAB984201D04B4B9847039805AB9842B2
:1033200001D0484B9847484B984790B904F108039F
:10333000BFF35B8F53E8002F013A43E800210029D7
:10334000F8D1BFF35B8F002A03DC2046374B984748
:10335000EBE76EB12E6006F10803BFF35B8F53E815
:10336000002F013243E800210029F8D1BFF35B8F21
:1033700036493046364B98470836BFF35B8F56E8E0
:10338000003F03F1444303F5CA0303F5585346E8ED
:103390000032002AF3D1BFF35B8F0F9CCCB11E4BE0
:1033A0009C4225D0ACB100230F9304F10803BFF376
:1033B0005B8F53E8002F013A43E800210029F8D140
:1033C000BFF35B8F002A04DC2046184B9847002887
:1033D000EBD009980BAB984201D01A4B9847039851
:1033E00005AB984201D0174B9847284611B0F0BD65
:1033F0000A4B0B4A4FF4D5710A480B4CA0474FF4C7
:10340000C0713046134B98477DE77CE785E700BFE6
:1034100041584700FD284000ADDEADDEB4B54700A1
:1034200030B74700D8B547006139470089304600BA
:10343000C57A4600F57B45003CB847007928400036
:103440004D0640001D6E46007D6F460000CA9A3B47
:103450008D314600216E460070470000002955D08E
:103460002DE9F04782B00D460446836840681B1A78
:10347000994234D9009162682368D31AD943A9428A
:1034800034D30193AB4234D269460E681E4423689C
:10349000D21A964201D24FF0FF3666BB0027D4F80D
:1034A00004A02068DFF88080C04781465046C047AE
:1034B000B0EB090824D107EB080000EB05082A4609
:1034C0000021134B9847206808B1124B984727609A
:1034D000C4F804803E44A66002B0BDE8F0874618F8
:1034E0000A4600210A4B98476660F5E70A480B4BED
:1034F000984701A9C9E73046094B98470746CEE7E8
:10350000424649463846074B9847D4E7704700BFC4
:10351000BD4847001D6E460080B84700CD88460074
:10352000C57A4600F5474700593440000EB42DE9EE
:10353000F04F88B002AF824607F13C0353F8046BAA
:1035400000F108027A6002600022426002727B6130
:103550009846E946A0B002AC3246802120462C4D68
:10356000A84705467F2802DDCD46802420E0DAF812
:1035700004502046274B9847009023462A460021B6
:103580005046254CA047CD4650461837BD46BDE8AD
:10359000F04F03B07047214607F108001F4B9847D2
:1035A00010E00546844214DCB86808B11C4B98470B
:1035B000AC42E9DC64000023BB60FB603B61254654
:1035C000002CE8D1434632462946B868104DA8473A
:1035D000E7E7D7F80890DAF804B048460D4B98476B
:1035E00000904B465A4600215046DFF82C90C847C1
:1035F000DAE7B86808B10A4B9847DAF800007B6848
:10360000834201D0064B9847064B9847F5E700BF29
:103610004D93470041584700719046005D3440008B
:103620001D6E46007D6F46002DE9F041A8B00546AD
:103630000FAB0D9382494FF000030A4605390DA8E0
:10364000804CA047002328AA42F8543D0DA92846E3
:103650007D4CA047139CCCB17C4B9C4228D0ACB194
:103660000023139304F10803BFF35B8F53E8002F8B
:10367000013A43E800210029F8D1BFF35B8F002A0B
:1036800004DC2046724B98470028EBD00D980FAB16
:10369000984201D06F4B98476F4B03F108022A60A4
:1036A0007033AB6405F5AC7630466C4B984706E05A
:1036B0006B4B6C4A4FF4D5716B486C4CA0470023A0
:1036C00085F85C3115A86A4B9847159F0023149321
:1036D000A7B31C469F4231D05C4B9C4203D0FCB147
:1036E0000023149309E05E4B624A4FF4D5715E48A3
:1036F0005E4CA04700F073BC90B904F10803BFF31F
:103700005B8F53E8002F013A43E800210029F8D1EC
:10371000BFF35B8F002A03DC20464D4B9847EBE755
:1037200067B114970837BFF35B8F57E8003F013349
:1037300047E80032002AF8D1BFF35B8F14A928466E
:103740004D4B9847149CCCB1404B9C4241D0ACB1FE
:103750000023149304F10803BFF35B8F53E8002F99
:10376000013A43E800210029F8D1BFF35B8F002A1A
:1037700004DC2046364B98470028EBD0159CCCB192
:10378000324B9C422CD0ACB10023159304F10803BA
:10379000BFF35B8F53E8002F013A43E80021002973
:1037A000F8D1BFF35B8F002A04DC2046284B9847F2
:1037B0000028EBD000231693002D7AD01C469D42A2
:1037C00077D0224B9C4212D0002C63D0002316935A
:1037D00022E0234B274A4FF4D5712348234CA047BE
:1037E0001F4B264A4FF4D5711F48204CA0471C4B55
:1037F000234A4FF4D5711C481C4CA047002116A841
:10380000204B98473046204B984728461F4B9847F7
:103810001F4B984700283DD104F10803BFF35B8F8D
:1038200053E8002F013A43E800210029F8D1BFF303
:103830005B8F002A2EDC2046054B9847EAE700BF45
:1038400039B94700FD284000B5174600ADDEADDEB2
:10385000893046001D6E4600B8B647000D3246005E
:10386000B4B5470030B74700D8B5470061394700C5
:10387000712140008CB747003DE245005CB747002E
:10388000BCB74700F1224000B1324600E1294600B2
:103890007D6F46006DB1169505F10803BFF35B8F90
:1038A00053E8002F013243E800210029F8D1BFF38B
:1038B0005B8F1823179317AB16AA9C4968469C4C3C
:1038C000A047169CCCB19B4B9C4224D0ACB10023AA
:1038D000169304F10803BFF35B8F53E8002F013AFE
:1038E00043E800210029F8D1BFF35B8F002A04DCF4
:1038F0002046914B98470028EBD000231893002DC9
:1039000043D01C469D4240D08A4B9C420AD06CB3A7
:103910000023189317E0894B894A4FF4D5718948E1
:10392000894CA047854B864A4FF4D5718548864C13
:10393000A047002118A8854B984700216846844B72
:1039400098475FE790B904F10803BFF35B8F53E832
:10395000002F013A43E800210029F8D1BFF35B8F23
:10396000002A03DC2046744B9847EBE76DB11895AD
:1039700005F10803BFF35B8F53E8002F013243E8E2
:1039800000210029F8D1BFF35B8F1823199319ABDD
:1039900018AA704901A8704CA047189CCCB1654B7F
:1039A0009C421CD0ACB10023189304F10803BFF370
:1039B0005B8F53E8002F013A43E800210029F8D13A
:1039C000BFF35B8F002A04DC20465B4B984700283E
:1039D000EBD0DDF800801BA8604B984706E0574B02
:1039E000574A4FF4D5715748574CA0471B9F0023A7
:1039F0001A939FB31C469F4230D04E4B9C4203D03B
:103A0000F4B100231A9308E04C4B554A4FF4D5719A
:103A10004C484D4CA047F5E290B904F10803BFF3C0
:103A20005B8F53E8002F013A43E800210029F8D1C9
:103A3000BFF35B8F002A03DC20463F4B9847EBE740
:103A400067B11A970837BFF35B8F57E8003F013320
:103A500047E80032002AF8D1BFF35B8F1AA940462D
:103A6000404B98471A9CCCB1324B9C4238D0ACB1F9
:103A700000231A9304F10803BFF35B8F53E8002F70
:103A8000013A43E800210029F8D1BFF35B8F002AF7
:103A900004DC2046284B98470028EBD01B9CCCB177
:103AA000244B9C4223D0ACB100231B9304F10803A8
:103AB000BFF35B8F53E8002F013A43E80021002950
:103AC000F8D1BFF35B8F002A04DC20461A4B9847DD
:103AD0000028EBD0DDF804801DA8204B98470DE0AE
:103AE000164B1F4A4FF4D5711648174CA047134B7D
:103AF0001D4A4FF4D5711348134CA0471D9F002356
:103B00001C93002F54D01C469F4251D0094B9C421D
:103B100004D0002C3ED000231C9328E0074B104A11
:103B20004FF4D5710748084CA04778E23CB94700EC
:103B3000992D4000ADDEADDE89304600B4B54700BA
:103B4000BCB74700D8B5470061394700F1224000B3
:103B50004D06400044B94700892B40007D274000B6
:103B60008CB747003DE245000CB8470090B904F11E
:103B70000803BFF35B8F53E8002F013A43E80021AD
:103B80000029F8D1BFF35B8F002A03DC2046A14B4C
:103B90009847EBE767B11C970837BFF35B8F57E88F
:103BA000003F013347E80032002AF8D1BFF35B8FB2
:103BB0001CA94046984B98471C9CCCB1974B9C4203
:103BC0003AD0ACB100231C9304F10803BFF35B8F20
:103BD00053E8002F013A43E800210029F8D1BFF350
:103BE0005B8F002A04DC20468A4B98470028EBD0E4
:103BF0001D9CCCB1894B9C4225D0ACB100231D93B8
:103C000004F10803BFF35B8F53E8002F013A43E848
:103C100000210029F8D1BFF35B8F002A04DC204685
:103C20007C4B98470028EBD09FED7D0A01220021B4
:103C300000987C4B98470DE07B4B7C4A4FF4D57144
:103C40007B487C4CA047784B7B4A4FF4D571784831
:103C5000784CA0479FED790A012211460098714BDC
:103C600098479FED6F0A012200210098744B9847F6
:103C70009FED720A012211460098714B98479FED03
:103C8000680A012200210198664B98479FED6B0A54
:103C9000012211460198634B98479FED610A01226A
:103CA00000210198664B98479FED640A0122114656
:103CB0000198634B98476B46624A634902A8634C7C
:103CC000A047029C04F5AC74614B1E9300231F9324
:103CD00005AB1EAA92E8030083E8030024205D4B95
:103CE0009847074607AB05AA92E8030083E803005C
:103CF00035B105F1480221463846574B984701E057
:103D00000022F8E73B46554A43F81C2B07AA92E8E5
:103D1000030083E8030039462046514B984708E0EA
:103D2000242138464F4B9847002102A84E4B984714
:103D30006CE16B464D4A4E4903A84E4CA047039C8C
:103D400004F5AC744C4B20930023219309AB20AABB
:103D500092E8030083E8030024203E4B984707467F
:103D60000BAB09AA92E8030083E8030035B105F123
:103D7000480221463846384B984701E00022F8E7D0
:103D80003B46364A43F81C2B0BAA92E8030083E813
:103D9000030039462046324B984708E02421384634
:103DA000304B9847002103A82F4B9847BCE70027CA
:103DB00027E001AB22AA314904A8314CA047229840
:103DC00024AB984201D02F4B9847049CCCB1134BA5
:103DD0009C425DD0ACB10023049304F10803BFF30F
:103DE0005B8F53E8002F013A43E800210029F8D106
:103DF000BFF35B8F002A04DC2046064B984700285F
:103E0000EBD0052F4BDC01373A461F4922A81F4B48
:103E10009847CEE7893046003DE24500ADDEADDE95
:103E200000000000D1034600B4B547008CB747003E
:103E3000D8B54700613947000CB847000050C34768
:103E40000D04460050B9470058B947000132400000
:103E50008D1C4000C57A460091334600A8B6470045
:103E600021324600216E46007928400064B947009F
:103E70006CB94700A92F40007523400080B9470066
:103E80006D2940001D6E460078B947002D35400071
:103E90006D4B6E4A4FF4D5716D486E4CA047039C34
:103EA000CCB16D4B9C426ED0ACB10023039304F1B6
:103EB0000803BFF35B8F53E8002F013A43E800216A
:103EC0000029F8D1BFF35B8F002A04DC2046634B46
:103ED00098470028EBD0029CCCB15F4B9C4259D054
:103EE000ACB10023029304F10803BFF35B8F53E8E6
:103EF000002F013A43E800210029F8D1BFF35B8F7E
:103F0000002A04DC2046554B98470028EBD0019C42
:103F1000CCB1514B9C4244D0ACB10023019304F18D
:103F20000803BFF35B8F53E8002F013A43E80021F9
:103F30000029F8D1BFF35B8F002A04DC2046474BF1
:103F400098470028EBD0009CCCB1434B9C422FD02B
:103F5000ACB10023009304F10803BFF35B8F53E877
:103F6000002F013A43E800210029F8D1BFF35B8F0D
:103F7000002A04DC2046394B98470028EBD028461D
:103F800028B0BDE8F081304B304A4FF4D57130484D
:103F9000304CA0472C4B2D4A4FF4D5712C482D4C5A
:103FA000A047294B2E4A4FF4D5712948294CA047E8
:103FB000254B2B4A4FF4D5712548264CA0470021AC
:103FC00013A8284B98470D980FAB984201D0264B69
:103FD0009847264B9847002114A8254B9847002165
:103FE00015A8244B98470DE4002116A8224B9847AA
:103FF00008E4002118A8204B98479EE400211AA845
:104000001B4B984700211BA81C4B9847002101A877
:10401000144B984791E400211CA8154B98470021A8
:104020001DA8164B9847F1E7229824AB98423FF41D
:10403000B9AE0D4B9847B5E6B4E675E6E6E7FFF78F
:10404000E1BBFFF7E2BB00BFB4B547003CB8470097
:10405000D8B5470061394700ADDEADDE8930460096
:1040600030B747004D0640001D6E46007D6F46008C
:104070006D224000ED204000F1224000F926400072
:104080000120704708B5026A12F0010F07D1C1691B
:10409000806870B1483800EB6200884708BD8368CB
:1040A0002BB1483B51105958C369C958F0E7002358
:1040B000F8E70020EFE7000010B50446094B03F1D4
:1040C000080202607033836400F5B070064B9847B5
:1040D00004F5AC70054B98472046054B98472046A1
:1040E00010BD00BF30BA470031494600B13246002A
:1040F000E1294600A0F14800FFF7DEBF10B50446F5
:10410000044B98474FF4C8712046034B984720460C
:1041100010BD00BFB9404000216E4600A0F148002C
:10412000FFF7ECBF10B50446024B0360024B984703
:10413000204610BD08BA4700C933460010B50446F2
:10414000044B0360044B984724212046034B9847B7
:10415000204610BD08BA4700C9334600216E46000C
:10416000F0B59DB004464FF0FF330F93C0F8B03068
:104170005A4B9847E8B10546594B149300231593C1
:10418000D4F8C0600F9B139305AB14AA92E8030008
:1041900083E80300069810F0010F77D1504B0822F6
:1041A0000E2105EB6000984718B10660139A16922D
:1041B000426094ED167AD4ED147A37EE677AD4ED36
:1041C000177AD4ED156A77EEE67A94ED1C6AB1EEB3
:1041D000465AD4ED1D6AF1EE665A37EE467A77EE0E
:1041E000E67A8DED095ACDED0A5A8DED0B7ACDEDBB
:1041F0000C7A2046394B9847054628B3384B119323
:1042000000231293D4F8C060D4F8B030109307ABF9
:1042100011AA92E8030083E80300089810F0010F48
:1042200039D12F4B1822152105EB60009847054620
:1042300050B145F8046B18AE09AB0FCB86E80F0000
:1042400085E80F00109B2B6104F5B07564220023F4
:10425000284624498847244B0D9300230E9301AE32
:104260000DAB93E8030086E8030024201F4B98471A
:10427000074603AB96E8030083E8030084B104F12A
:104280004802294638461A4B98470BE04310EA5833
:10429000059BD35883E74310EA58079BD358C1E7DF
:1042A0000022EEE73B46134A43F81C2B03AA92E890
:1042B000030083E80300394628460F4B9847204601
:1042C000064B9847002229460C4B98471DB0F0BD7D
:1042D000242138460A4B98470A4B984769BB45004A
:1042E00045614500C948460079434000C57A46000B
:1042F0009133460020BA4700213246007D3D4600FA
:10430000216E46007D6F460070B582B004460E46B1
:104310002420144B98470546A2686AB1483A1C34D9
:1043200094E8030002AB03E903003AB14832314696
:1043300028460D4B984709E00022F0E70022F6E7F7
:1043400024212846094B9847094B98472B46094A90
:1043500043F81C2B02AA12E9030083E80300284655
:1043600002B070BDC57A460091334600216E46000A
:104370007D6F460020BA4700F0B52DED048B8FB05D
:104380000446D0ED168AD0ED147A78EEE78A90EDE7
:10439000178AD0ED157A38EE678A90ED1C7AF1EE27
:1043A000479AD0ED1D7AB1EE679A78EEC78A38EE5B
:1043B000678A00257DE084ED607A9A4B98479A4A97
:1043C00082FB0032C317C3EB620303EB8303C31A00
:1043D000023307EE903AF8EEE77AC4ED627A95E0A0
:1043E00084ED607A8F4B98478F4A82FB0032C31767
:1043F000C3EB620303EB8303C31AC3F1FF2303F58B
:104400007F03FE3307EE903AF8EEE77AC4ED627A66
:104410007CE0C4ED617A834B9847834A82FB00328B
:10442000C317C3EB620303EB8303C31A023307EE24
:10443000903AF8EEE77AC4ED637A7CE0C4ED617AF5
:10444000784B9847784A82FB0032C317C3EB62036C
:1044500003EB8303C31AC3F1FF2303F57F03FE338A
:1044600007EE903AF8EEE77AC4ED637A63E0431022
:10447000F258019BD358A7E043105EF80320039B3A
:10448000D358102216210EEB60009847024670B1F7
:10449000034643F8047BD4F880110C9171680D91A8
:1044A0000EA911E9030083E80300604BD3600135D6
:1044B000ADB2042D00F3AE80D4ED607A94ED627A53
:1044C00077EE877AC4ED607A94ED637AD4ED616A11
:1044D00077EE266AC4ED616ADFED556A37EE267A1B
:1044E00084ED637A9FED537A39EE877AF4EEC77ADA
:1044F000F1EE10FA3FF55FAF9FED4E7A38EEC77AD6
:10450000F4EEC77AF1EE10FA3FF76AAF94ED617AF4
:10451000DFED487A79EE277AB4EEE77AF1EE10FA19
:104520003FF577AFDFED437A78EE677AB4EEE77A5E
:10453000F1EE10FA82DC3B4B984780B2C20AC2EB24
:1045400002223D4B83FB02611144D217C2EB2111C1
:10455000C0F38512C2EB0222384E86FB0276164467
:10456000D217C2EB661200F01F00C0EB002083FBE5
:1045700000631E18C317C3EB2613090401F47F015F
:10458000120292B20A43DBB2134343F07F4300931B
:104590000593C4F8B0302046294B98470646E8B149
:1045A000284B079300230893D4F8C070059B06930B
:1045B00001AB07AA92E8030083E80300029810F019
:1045C000010F7FF454AF1F4B08220E2106EB600051
:1045D000984718B10760069A0992426004F5C076C0
:1045E0002046174B9847864600283FF460AF154B8E
:1045F0000A9300230B93D4F8C07003AB0AAA92E885
:10460000030083E80300049810F0010F7FF434AF37
:104610000C4B36E720460C4B98470FB0BDEC048B93
:10462000F0BD00BFC94A47006766666600002042C9
:10463000CDCC4C3D000020424308218483200882D9
:1046400069BB450045614500CDCD450070B596B0CC
:1046500004464FF0FF330993C0F8B0303B4B984706
:10466000E8B105463A4B0E9300230F93D4F8C0608F
:10467000099B0D9301AB0EAA92E8030083E80300A7
:10468000029810F0010F57D1314B08220E2105EB93
:104690006000984718B106600D9A1092426094ED40
:1046A000167AD4ED147A37EE677AD4ED177AD4ED12
:1046B000156A77EEE67A94ED1C6AB1EE465AD4EDAF
:1046C0001D6AF1EE665A37EE467A77EEE67A8DEDA0
:1046D000055ACDED065A8DED077ACDED087A2046C4
:1046E0001A4B9847054628B3194B0B9300230C939C
:1046F000D4F8C060D4F8B0300A9303AB0BAA92E8A8
:10470000030083E80300049810F0010F19D1104B47
:104710001822152105EB60009847044650B144F873
:10472000046B12AD05AB0FCB85E80F0084E80F00DA
:104730000A9B236116B070BD4310EA58019BD35801
:10474000A3E74310EA58039BD358E1E769BB450050
:104750004561450070B504688C4229D00D46064677
:10476000174B9C4225D0ACB10023036004F1080331
:10477000BFF35B8F53E8002F013A43E80021002983
:10478000F8D1BFF35B8F002A04DC20460D4B98471D
:104790000028EBD065B135600835BFF35B8F55E875
:1047A000003F013345E80032002AF8D1BFF35B8FA8
:1047B00070BD054B054A4FF4D5710548054CA0471F
:1047C000ADDEADDE89304600B4B54700D4BA47004F
:1047D000D8B5470061394700F0B587B0054600F508
:1047E000AC7600230493002839D01C46984236D07A
:1047F0009C4B9C4203D01CB3002304930DE09A4BC6
:104800009A4A4FF4D5719A489A4CA047002104A8BF
:10481000994B9847994B984790B904F10803BFF317
:104820005B8F53E8002F013A43E800210029F8D1BB
:10483000BFF35B8F002A03DC2046914B9847EBE7E0
:104840006DB1049505F10803BFF35B8F53E8002FAA
:10485000013243E800210029F8D1BFF35B8F049FA8
:10486000002303939FB31C469F4230D07D4B9C4254
:1048700003D0F4B10023039308E07B4B814A4FF44B
:10488000D5717B487B4CA04737E190B904F1080310
:10489000BFF35B8F53E8002F013A43E80021002962
:1048A000F8D1BFF35B8F002A03DC2046744B984796
:1048B000EBE767B103970837BFF35B8F57E8003F1B
:1048C000013347E80032002AF8D1BFF35B8FD5F8F7
:1048D0005831002B00F08480009301966A4B1868D1
:1048E0006A4B984702906946674B1868684B98472F
:1048F0004EE05D4B634A4FF4D5715D485D4CA04777
:10490000E5E090B904F10803BFF35B8F53E8002F93
:10491000013A43E800210029F8D1BFF35B8F002A58
:1049200003DC2046564B9847EBE765B10595083503
:10493000BFF35B8F55E8003F013345E80032002AA2
:10494000F8D1BFF35B8F05A93046B847059CCCB1C1
:10495000444B9C4231D0ACB10023059304F10803D1
:10496000BFF35B8F53E8002F013A43E80021002991
:10497000F8D1BFF35B8F002A04DC2046404B9847F8
:104980000028EBD0019BFBB1009B002B00F088803E
:10499000009E336900933368DF68039D002305930D
:1049A000002DD0D01C469D42CDD02E4B9C42A0D095
:1049B000002CBAD000230593A4E72B4B314A4FF4C7
:1049C000D5712B482B4CA0472F4B18682F4B98477D
:1049D0006B46834240D102992B4B18682C4B984769
:1049E000039CD4B11F4B9C4200F08D80ACB10023DE
:1049F000039304F10803BFF35B8F53E8002F013AE0
:104A000043E800210029F8D1BFF35B8F002A04DCC2
:104A100020461B4B98470028EBD0049CCCB1114B8F
:104A20009C4277D0ACB10023049304F10803BFF398
:104A30005B8F53E8002F013A43E800210029F8D1A9
:104A4000BFF35B8F002A04DC20460D4B98470028FB
:104A5000EBD0012007B0F0BD0E4B0F4A31210F48BB
:104A6000044CA047ADDEADDEB4B54700D4BA470074
:104A7000D8B5470061394700554740007D6F460073
:104A800089304600A8BA47000464402045604400CD
:104A900019604400E0B8470000BB470000B9470078
:104AA000204B1868204B98476B46834205D10299EA
:104AB0001C4B18681D4B984792E71D4B1D4A31212E
:104AC0001D481E4CA047002105A81D4B9847154BBB
:104AD0001868154B98476B46834205D0144B154A0E
:104AE00031211548154CA04702990E4B18680F4B01
:104AF0009847002103A8124B9847002104A8114BA6
:104B00009847114B9847114B114A4FF4D5711148F2
:104B10000A4CA0470D4B104A4FF4D5710D48074C75
:104B2000A047E6E704644020456044001960440063
:104B3000E0B8470000BB470000B9470061394700B3
:104B40004D064000554740007D6F4600B4B5470014
:104B5000A8BA4700D8B54700D4BA470030B58BB0E3
:104B6000054605AB03934E494FF000030A4605394D
:104B700003A84C4CA04700230AAA42F8043D03A90D
:104B80002846494CA047099CCCB1484B9C4228D0B0
:104B9000ACB10023099304F10803BFF35B8F53E822
:104BA000002F013A43E800210029F8D1BFF35B8FC1
:104BB000002A04DC20463E4B98470028EBD003989F
:104BC00005AB984201D03B4B98473B4B03F10802A1
:104BD0002A607033AB6405F5AC742046374B9847B8
:104BE00006E0374B374A4FF4D5713748374CA0476A
:104BF0000023019300930022002305F5B07034498F
:104C0000884714E0002109A8324B9847039805AB68
:104C1000984201D0274B98472F4B984720462F4B5F
:104C2000984728462E4B98472B4B9847F9E7002387
:104C3000C5F88431C5F88031C5F88C31C5F88831A4
:104C4000284CA047284A82FB0032C317C3EB22231B
:104C50004FF42F7202FB1303323307EE903AF8EE53
:104C6000E77AC5ED607AA047204B83FB00231A1832
:104C7000C317C3EB22234FF4BE7202FB130332337C
:104C800007EE903AF8EEE77AC5ED617A4FF07E5381
:104C9000C5F88831C5F88C3128460BB030BD00BF4F
:104CA00045BB4700FD284000B5174600ADDEADDE30
:104CB000893046001D6E460030BA47000D3246006E
:104CC000B4B54700A8BA4700D8B5470061394700D6
:104CD000A54846004D0640007D6F4600B1324600B3
:104CE000E1294600C94A470091739F5D859176ACE2
:104CF0000120704708B5026A12F0010F07D1C1699F
:104D0000806870B1483800EB6200884708BD83684E
:104D10002BB1483B51105958C369C958F0E70023DB
:104D2000F8E70020EFE7000010B504460B4B03F155
:104D30000802026070338364D0F8800108B1084B28
:104D4000984704F5B070074B984704F5AC70064BD4
:104D500098472046054B9847204610BDA8BB470002
:104D60001D6E460031494600B1324600E129460039
:104D7000A0F14800FFF7D8BF10B50446044B984790
:104D80004FF4D8712046034B9847204610BD00BF12
:104D9000294D4000216E4600A0F14800FFF7ECBF0E
:104DA00010B50446024B0360024B9847204610BDE5
:104DB00008BA4700C933460010B50446044B0360E7
:104DC000044B984724212046034B9847204610BDAA
:104DD00008BA4700C9334600216E4600F0B52DEDF4
:104DE000028BA5B004464FF0FF330993C0F8B030F2
:104DF0008E4B9847F0B105468D4B1C9300231D93B5
:104E0000D4F8C060099B1B9305AB1CAA92E8030071
:104E100083E80300069810F0010F40F0DC80844B1B
:104E200008220E2105EB6000984718B106601B9A16
:104E30001E92426094ED167AD4ED147A37EE677ABA
:104E4000D4ED177AD4ED156A77EEE67A94ED1C6A04
:104E5000B1EE465AD4ED1D6AF1EE665A37EE467A47
:104E600077EEE67A8DED0A5ACDED0B5A8DED0C7A80
:104E7000CDED0D7A20466D4B9847054630B36C4B0F
:104E8000199300231A93D4F8C060D4F8B030189363
:104E900007AB19AA92E8030083E80300089810F012
:104EA000010F40F09D80624B1822152105EB600038
:104EB0009847054650B145F8046B20AE0AAB0FCBBE
:104EC00086E80F0085E80F00189B2B6194ED168A89
:104ED000D4ED147A38EE678AD4ED178AD4ED157ABA
:104EE00078EEE78A534FB847FDEEC87A17EE906A1E
:104EF00090FBF6F306FB130307EE903AB8EEE78A51
:104F0000B847FDEEE87A17EE905A90FBF5F305FBF3
:104F1000130307EE903AF8EEE77A8DED0E8ACDEDA9
:104F20000F7A04F5C8730EAA92E8030083E8030021
:104F3000B84790FBF6F306FB130607EE906AB8EE4F
:104F4000E78AB84790FBF5F305FB130507EE905A87
:104F5000F8EEE77A8DED108ACDED117A04F5CC7379
:104F600010AA92E8030083E803004FF07E521292E9
:104F7000314B139304F5D07312A903C983E80300DE
:104F80001492159204F5D47314AA92E8030083E8EE
:104F9000030004F5B075642200232846274988479A
:104FA000274B16930023179301AE16AB93E803002B
:104FB00086E803002420234B9847074603AB96E876
:104FC000030083E8030084B104F14802294638460F
:104FD0001D4B98470BE04310EA58059BD3581FE739
:104FE0004310EA58079BD3585EE70022EEE73B46A2
:104FF000164A43F81C2B03AA92E8030083E8030037
:1050000039462846124B98472046084B98470022BD
:105010002946104B984725B0BDEC028BF0BD2421EA
:1050200038460D4B98470D4B984700BF69BB45006C
:1050300045614500C94A4700000080BFC948460095
:10504000D1504000C57A46009133460098BB4700D6
:10505000213246007D3D4600216E46007D6F4600B0
:1050600070B582B004460E462420144B984705467E
:10507000A2686AB1483A1C3494E8030002AB03E921
:1050800003003AB14832314628460D4B984709E0B3
:105090000022F0E70022F6E724212846094B984732
:1050A000094B98472B46094A43F81C2B02AA12E9E0
:1050B000030083E80300284602B070BDC57A4600AD
:1050C00091334600216E46007D6F460098BB470035
:1050D000F0B52DED028BA7B00446D0ED168AD0EDC9
:1050E000147A78EEE78A90ED178AD0ED157A38EECB
:1050F000678A90ED1C7AD0ED1D7A78EEC78A38EE7B
:10510000678A0025D0E00023C4F89031534B9847BC
:10511000002800F00100B8BF4042013007EE900ABD
:10512000F8EEE77AC4ED687AEDE0DFED4D7A78EEDF
:10513000E77AC4ED647A494B9847002800F00100F3
:10514000B8BF4042C04307EE900AF8EEE77AC4EDDC
:10515000687AD8E00023C4F89431404B984700287F
:1051600000F00100B8BF4042013007EE900AF8EEAF
:10517000E77AC4ED697AD4E0DFED397A78EE677AC0
:10518000C4ED657A354B9847002800F00100B8BFA0
:105190004042C04307EE900AF8EEE77AC4ED697A20
:1051A000BFE00023C4F898312C4B9847002800F04A
:1051B0000100B8BF4042013007EE900AF8EEE77AEE
:1051C000C4ED6A7ABBE0DFED267A78EEE77AC4EDCB
:1051D000667A224B9847002800F00100B8BF404291
:1051E000C04307EE900AF8EEE77AC4ED6A7AA6E0CB
:1051F0000023C4F89C31194B9847002800F00100A7
:10520000B8BF4042013007EE900AF8EEE77AC4EDED
:105210006B7AA2E0DFED127A78EE677AC4ED677AF6
:105220000E4B9847002800F00100B8BF4042C04331
:1052300007EE900AF8EEE77AC4ED6B7A8DE04B103A
:10524000F258009BD358A5E04310FA58029BD3585C
:10525000D4E04310F258049BD35831E1C94A4700C7
:105260000000803F4310FA58069BD3581422114681
:1052700007EB600098470346A8B1024642F8046B6A
:10528000109924911199259126A911E9030082E82A
:1052900003000E9A22920F9A23920C3322AA92E8CC
:1052A000030083E803000135312D00F33981D4ED8B
:1052B000647A94ED687A77EE877AC4ED647A94ED37
:1052C000657AD4ED696A37EE267A84ED657A94EDD5
:1052D000667AD4ED6A6A37EE267A84ED667A94EDC2
:1052E000677AD4ED6B6A37EE267A84ED677AF5EE4D
:1052F000C07AF1EE10FA3FF506AFF4EEE78AF1EE70
:1053000010FA7FF612AFD4ED657AF5EEC07AF1EEC1
:1053100010FA3FF51FAFF4EEC87AF1EE10FABFF6BF
:105320002BAFD4ED667AF5EEC07AF1EE10FA3FF5C8
:1053300038AFF4EEE87AF1EE10FABFF644AFD4EDF0
:10534000677AF5EEC07AF1EE10FA3FF551AFF4EE60
:10535000C87AF1EE10FABFF65DAF4FF0FF33089355
:10536000C4F8B0302046724B98470646E0B1714B06
:10537000139300231493D4F8C070089B129313AABC
:1053800092E803008DE80300084611F0010F7FF456
:1053900056AF684B08220E2106EB6000984718B103
:1053A0000760129A15924260D4F88C215100D4F80B
:1053B000803103EB0212166850684A1C03EBC203EB
:1053C0001A685B680C960D900A920B932046584B16
:1053D0009847074600282DD0564B16930023179365
:1053E000D4F8C06002AB16AA92E8030083E8030079
:1053F000039810F0010F7FF427AF4E4B1422114693
:1054000007EB600098470346A0B1024642F8046BE0
:105410000C991A910D991B911AA903C982E80300EE
:105420000A9A18920B9A19920C3318AA92E8030060
:1054300083E80300D4F88C21D4F8803103EB021305
:1054400004F5C87292E8030083E80300D4F88C31B5
:105450005B000133D4F8802102EBC30304F5CC7266
:1054600092E8030083E80300D4F88C21013232492A
:1054700081FB0231D317C3EBA113C82101FB132316
:10548000C4F88C312D4B98470990C4F8B0002046E1
:10549000274B98470646E8B1264B1D9300231E93E1
:1054A000D4F8C070099B1C9304AB1DAA92E80300BA
:1054B00083E80300059810F0010F7FF4CAAE1D4B7E
:1054C00008220E2106EB6000984718B107601C9A6D
:1054D0001F924260D4F89001D4F89411D4F8982126
:1054E000D4F89C31109011910E920F932046104BDE
:1054F0009847074600283FF4D6AE0E4B2093002372
:105500002193D4F8C06006AB20AA92E8030083E898
:105510000300079810F0010F7FF4A4AE054BA5E639
:105520002046074B984727B0BDEC028BF0BD00BF6B
:1055300069BB4500456145001F85EB51C94A4700DD
:10554000CDCD450070B596B004464FF0FF330993BA
:10555000C0F8B0303B4B9847E8B105463A4B0E9344
:1055600000230F93D4F8C060099B0D9301AB0EAAE2
:1055700092E8030083E80300029810F0010F57D16E
:10558000314B08220E2105EB6000984718B10660E8
:105590000D9A1092426094ED167AD4ED147A37EE9B
:1055A000677AD4ED177AD4ED156A77EEE67A94ED42
:1055B0001C6AB1EE465AD4ED1D6AF1EE665A37EE1A
:1055C000467A77EEE67A8DED055ACDED065A8DEDE9
:1055D000077ACDED087A20461A4B9847054628B33E
:1055E000194B0B9300230C93D4F8C060D4F8B0305F
:1055F0000A9303AB0BAA92E8030083E80300049824
:1056000010F0010F19D1104B1822152105EB600085
:105610009847044650B144F8046B12AD05AB0FCB6C
:1056200085E80F0084E80F000A9B236116B070BD67
:105630004310EA58019BD358A3E74310EA58039B51
:10564000D358E1E769BB450045614500002967D0B3
:105650002DE9F04182B006460C4682684368D21AB2
:10566000B1EBE20F2ED9009143680768DF1BFF10F2
:105670006FF06042D21B8A422FD301978F422FD204
:105680006A461268174432689B1AB7EBE30F29D2B7
:105690006FF06047002F2DD0B7F1005F28D2F800DF
:1056A000204B98478046716845463368994224D01C
:1056B0001DB11A682A605A686A6008330835F5E730
:1056C000013C08332CB1002BFAD000225A601A603A
:1056D000F6E7736002B0BDE8F0811348134B9847BA
:1056E00001AACEE7B7F1005FD4D36FF06047D1E7EE
:1056F0000F4B98474FF00008D5E734B115B10023A0
:105700006B602B60013C0835F7E7306808B1094B46
:105710009847C6F80080756008EBC707B760D9E7FF
:10572000704700BFC57A460080B84700CD88460064
:105730007D8846001D6E460070B504688C4229D0F5
:105740000D460646174B9C4225D0ACB100230360A2
:1057500004F10803BFF35B8F53E8002F013A43E8DD
:1057600000210029F8D1BFF35B8F002A04DC20461A
:105770000D4B98470028EBD065B135600835BFF375
:105780005B8F55E8003F013345E80032002AF8D12D
:10579000BFF35B8F70BD054B054A4FF4D5710548CB
:1057A000054CA047ADDEADDE89304600B4B54700FC
:1057B0004CBC4700D8B5470061394700F0B587B009
:1057C000054600F5AC7600230493002839D01C462A
:1057D000984236D09C4B9C4203D01CB300230493C8
:1057E0000DE09A4B9A4A4FF4D5719A489A4CA047CB
:1057F000002104A8994B9847994B984790B904F118
:105800000803BFF35B8F53E8002F013A43E8002100
:105810000029F8D1BFF35B8F002A03DC2046914BAF
:105820009847EBE76DB1049505F10803BFF35B8F73
:1058300053E8002F013243E800210029F8D1BFF3DB
:105840005B8F049F002303939FB31C469F4230D07D
:105850007D4B9C4203D0F4B10023039308E07B4BC3
:10586000814A4FF4D5717B487B4CA04737E190B912
:1058700004F10803BFF35B8F53E8002F013A43E8BC
:1058800000210029F8D1BFF35B8F002A03DC2046FA
:10589000744B9847EBE767B103970837BFF35B8F0B
:1058A00057E8003F013347E80032002AF8D1BFF340
:1058B0005B8FD5F85831002B00F08480009301965F
:1058C0006A4B18686A4B984702906946674B18689C
:1058D000684B98474EE05D4B634A4FF4D5715D4885
:1058E0005D4CA047E5E090B904F10803BFF35B8F7E
:1058F00053E8002F013A43E800210029F8D1BFF313
:105900005B8F002A03DC2046564B9847EBE765B1D6
:1059100005950835BFF35B8F55E8003F013345E837
:105920000032002AF8D1BFF35B8F05A93046B84793
:10593000059CCCB1444B9C4231D0ACB100230593C3
:1059400004F10803BFF35B8F53E8002F013A43E8EB
:1059500000210029F8D1BFF35B8F002A04DC204628
:10596000404B98470028EBD0019BFBB1009B002BDC
:1059700000F08880009E336900933368DF68039DE0
:1059800000230593002DD0D01C469D42CDD02E4B38
:105990009C42A0D0002CBAD000230593A4E72B4B47
:1059A000314A4FF4D5712B482B4CA0472F4B186828
:1059B0002F4B98476B46834240D102992B4B186876
:1059C0002C4B9847039CD4B11F4B9C4200F08D8018
:1059D000ACB10023039304F10803BFF35B8F53E8DA
:1059E000002F013A43E800210029F8D1BFF35B8F73
:1059F000002A04DC20461B4B98470028EBD0049C6F
:105A0000CCB1114B9C4277D0ACB10023049304F18C
:105A10000803BFF35B8F53E8002F013A43E80021EE
:105A20000029F8D1BFF35B8F002A04DC20460D4B20
:105A300098470028EBD0012007B0F0BD0E4B0F4A6D
:105A400031210F48044CA047ADDEADDEB4B54700B0
:105A50004CBC4700D8B54700613947003957400072
:105A60007D6F46008930460020BC4700046440201A
:105A70004560440019604400E0B8470078BC470026
:105A800000B94700204B1868204B98476B4683426B
:105A900005D102991C4B18681D4B984792E71D4B86
:105AA0001D4A31211D481E4CA047002105A81D4B51
:105AB0009847154B1868154B98476B46834205D09D
:105AC000144B154A31211548154CA04702990E4B2D
:105AD00018680F4B9847002103A8124B98470021E4
